{
  "contractName": "AssetBase",
  "abi": [
    {
      "constant": false,
      "inputs": [],
      "name": "unpause",
      "outputs": [
        {
          "name": "",
          "type": "bool"
        }
      ],
      "payable": false,
      "stateMutability": "nonpayable",
      "type": "function"
    },
    {
      "constant": true,
      "inputs": [],
      "name": "paused",
      "outputs": [
        {
          "name": "",
          "type": "bool"
        }
      ],
      "payable": false,
      "stateMutability": "view",
      "type": "function"
    },
    {
      "constant": false,
      "inputs": [
        {
          "name": "_newAdmin",
          "type": "address"
        }
      ],
      "name": "setAdmin",
      "outputs": [],
      "payable": false,
      "stateMutability": "nonpayable",
      "type": "function"
    },
    {
      "constant": true,
      "inputs": [
        {
          "name": "",
          "type": "uint256"
        }
      ],
      "name": "assetIndexToOwner",
      "outputs": [
        {
          "name": "",
          "type": "address"
        }
      ],
      "payable": false,
      "stateMutability": "view",
      "type": "function"
    },
    {
      "constant": false,
      "inputs": [],
      "name": "pause",
      "outputs": [
        {
          "name": "",
          "type": "bool"
        }
      ],
      "payable": false,
      "stateMutability": "nonpayable",
      "type": "function"
    },
    {
      "constant": false,
      "inputs": [
        {
          "name": "_newUser",
          "type": "address"
        }
      ],
      "name": "setUser",
      "outputs": [],
      "payable": false,
      "stateMutability": "nonpayable",
      "type": "function"
    },
    {
      "constant": true,
      "inputs": [
        {
          "name": "",
          "type": "uint256"
        }
      ],
      "name": "assetIndexToApproved",
      "outputs": [
        {
          "name": "",
          "type": "address"
        }
      ],
      "payable": false,
      "stateMutability": "view",
      "type": "function"
    },
    {
      "constant": true,
      "inputs": [],
      "name": "userAddress",
      "outputs": [
        {
          "name": "",
          "type": "address"
        }
      ],
      "payable": false,
      "stateMutability": "view",
      "type": "function"
    },
    {
      "constant": true,
      "inputs": [],
      "name": "adminAddress",
      "outputs": [
        {
          "name": "",
          "type": "address"
        }
      ],
      "payable": false,
      "stateMutability": "view",
      "type": "function"
    },
    {
      "inputs": [],
      "payable": false,
      "stateMutability": "nonpayable",
      "type": "constructor"
    },
    {
      "anonymous": false,
      "inputs": [
        {
          "indexed": false,
          "name": "owner",
          "type": "address"
        },
        {
          "indexed": false,
          "name": "assetId",
          "type": "uint256"
        }
      ],
      "name": "RegisteredFirstTime",
      "type": "event"
    },
    {
      "anonymous": false,
      "inputs": [
        {
          "indexed": false,
          "name": "from",
          "type": "address"
        },
        {
          "indexed": false,
          "name": "to",
          "type": "address"
        },
        {
          "indexed": false,
          "name": "tokenId",
          "type": "uint256"
        }
      ],
      "name": "Transfer",
      "type": "event"
    },
    {
      "anonymous": false,
      "inputs": [
        {
          "indexed": false,
          "name": "newContract",
          "type": "address"
        }
      ],
      "name": "ContractUpgrade",
      "type": "event"
    }
  ],
  "bytecode": "0x60606040526000600160146101000a81548160ff021916908315150217905550341561002a57600080fd5b6106fc806100396000396000f300606060405260043610610099576000357c0100000000000000000000000000000000000000000000000000000000900463ffffffff1680633f4ba83a1461009e5780635c975abb146100cb578063704b6c02146100f85780637a4dd307146101315780638456cb5914610194578063858ced35146101c1578063d0b22f7c146101fa578063e4128fb31461025d578063fc6f9468146102b2575b600080fd5b34156100a957600080fd5b6100b1610307565b604051808215151515815260200191505060405180910390f35b34156100d657600080fd5b6100de6103af565b604051808215151515815260200191505060405180910390f35b341561010357600080fd5b61012f600480803573ffffffffffffffffffffffffffffffffffffffff169060200190919050506103c2565b005b341561013c57600080fd5b610152600480803590602001909190505061049c565b604051808273ffffffffffffffffffffffffffffffffffffffff1673ffffffffffffffffffffffffffffffffffffffff16815260200191505060405180910390f35b341561019f57600080fd5b6101a76104cf565b604051808215151515815260200191505060405180910390f35b34156101cc57600080fd5b6101f8600480803573ffffffffffffffffffffffffffffffffffffffff16906020019091905050610577565b005b341561020557600080fd5b61021b6004808035906020019091905050610652565b604051808273ffffffffffffffffffffffffffffffffffffffff1673ffffffffffffffffffffffffffffffffffffffff16815260200191505060405180910390f35b341561026857600080fd5b610270610685565b604051808273ffffffffffffffffffffffffffffffffffffffff1673ffffffffffffffffffffffffffffffffffffffff16815260200191505060405180910390f35b34156102bd57600080fd5b6102c56106ab565b604051808273ffffffffffffffffffffffffffffffffffffffff1673ffffffffffffffffffffffffffffffffffffffff16815260200191505060405180910390f35b60008060009054906101000a900473ffffffffffffffffffffffffffffffffffffffff1673ffffffffffffffffffffffffffffffffffffffff163373ffffffffffffffffffffffffffffffffffffffff1614151561036457600080fd5b600160149054906101000a900460ff16151561037f57600080fd5b6000600160146101000a81548160ff021916908315150217905550600160149054906101000a900460ff16905090565b600160149054906101000a900460ff1681565b6000809054906101000a900473ffffffffffffffffffffffffffffffffffffffff1673ffffffffffffffffffffffffffffffffffffffff163373ffffffffffffffffffffffffffffffffffffffff1614151561041d57600080fd5b600073ffffffffffffffffffffffffffffffffffffffff168173ffffffffffffffffffffffffffffffffffffffff161415151561045957600080fd5b806000806101000a81548173ffffffffffffffffffffffffffffffffffffffff021916908373ffffffffffffffffffffffffffffffffffffffff16021790555050565b60036020528060005260406000206000915054906101000a900473ffffffffffffffffffffffffffffffffffffffff1681565b60008060009054906101000a900473ffffffffffffffffffffffffffffffffffffffff1673ffffffffffffffffffffffffffffffffffffffff163373ffffffffffffffffffffffffffffffffffffffff1614151561052c57600080fd5b600160149054906101000a900460ff1615151561054857600080fd5b60018060146101000a81548160ff021916908315150217905550600160149054906101000a900460ff16905090565b6000809054906101000a900473ffffffffffffffffffffffffffffffffffffffff1673ffffffffffffffffffffffffffffffffffffffff163373ffffffffffffffffffffffffffffffffffffffff161415156105d257600080fd5b600073ffffffffffffffffffffffffffffffffffffffff168173ffffffffffffffffffffffffffffffffffffffff161415151561060e57600080fd5b80600160006101000a81548173ffffffffffffffffffffffffffffffffffffffff021916908373ffffffffffffffffffffffffffffffffffffffff16021790555050565b60056020528060005260406000206000915054906101000a900473ffffffffffffffffffffffffffffffffffffffff1681565b600160009054906101000a900473ffffffffffffffffffffffffffffffffffffffff1681565b6000809054906101000a900473ffffffffffffffffffffffffffffffffffffffff16815600a165627a7a72305820ce35196239fc0c37333af8d8c78a3c64777c959c410f7c2f4622eb84bca6427e0029",
  "source": "pragma solidity ^0.4.4;\nimport \"./AssetAccessControl.sol\";\n\ncontract AssetBase is AssetAccessControl {\n  struct Asset {\n    uint32 assetExternalId;\n    bytes32  assetName;\n  }\n\n  /// @dev An array containing the Asset struct for all assets in existence. The ID\n  ///  of each asset is an index into this array. \n  Asset[] assets;\n  /// @dev A mapping from asset IDs to the address that owns them. All assets have\n  ///  some valid owner address, the manufacturer/producer being the default owner\n  mapping (uint256 => address) public assetIndexToOwner;\n  // @dev A mapping from owner address to count of tokens that address owns.\n  //  Used internally inside balanceOf() to resolve ownership count.\n  mapping (address => uint256) ownershipTokenCount;\n  /// @dev A mapping from assetIDs to an address that has been approved to call\n  ///  transferFrom(). Each asset can only have one approved address for transfer\n  ///  at any time. A zero value means no approval is outstanding.\n  mapping (uint256 => address) public assetIndexToApproved;\n\n  /// @dev The first time reg event is fired whenever a new asset comes into existence. \n  event RegisteredFirstTime(address owner, uint256 assetId);\n\n  /// @dev Transfer event as defined in current draft of ERC721. Emitted every time an asset\n  ///  ownership is assigned/transferred\n  event Transfer(address from, address to, uint256 tokenId);\n\n  function AssetBase() public {\n    // constructor\n  }\n\n  function _transfer(address _from, address _to, uint256 _tokenId) internal {\n      // Since the number of kittens is capped to 2^32 we can't overflow this\n      ownershipTokenCount[_to]++;\n      // transfer ownership\n      assetIndexToOwner[_tokenId] = _to;\n      // When creating new kittens _from is 0x0, but we can't account that address.\n      if (_from != address(0)) {\n          ownershipTokenCount[_from]--;\n          // clear any previously approved ownership exchange\n          delete assetIndexToApproved[_tokenId];\n      }\n      // Emit the transfer event.\n      Transfer(_from, _to, _tokenId);\n  }\n\n  function _createAsset(address _owner, uint32 _assetExternalId, bytes32 _assetName) internal returns (uint) {\n\n    Asset memory _asset = Asset({\n            assetExternalId: _assetExternalId,\n            assetName: _assetName\n        });\n        uint256 newAssetId = assets.push(_asset) - 1;\n\n        // emit the registration event\n        RegisteredFirstTime(_owner,newAssetId);\n        // This will assign ownership, and also emit the Transfer event as\n        // per ERC721 draft\n        _transfer(0, _owner, newAssetId);\n\n        return newAssetId;\n    }\n\n}\n",
  "sourcePath": "/sandboxes/crypto-heroes/asset-transfer/contracts/AssetBase.sol",
  "compiler": {
    "name": "solc",
    "version": "0.4.18+commit.9cf6e910.Emscripten.clang"
  },
  "schemaVersion": "1.0.1",
  "updatedAt": "2018-01-27T23:08:22.896Z"
}