{
  "contractName": "AssetAccessControl",
  "abi": [
    {
      "constant": false,
      "inputs": [],
      "name": "unpause",
      "outputs": [
        {
          "name": "",
          "type": "bool"
        }
      ],
      "payable": false,
      "stateMutability": "nonpayable",
      "type": "function"
    },
    {
      "constant": true,
      "inputs": [],
      "name": "paused",
      "outputs": [
        {
          "name": "",
          "type": "bool"
        }
      ],
      "payable": false,
      "stateMutability": "view",
      "type": "function"
    },
    {
      "constant": false,
      "inputs": [
        {
          "name": "_newAdmin",
          "type": "address"
        }
      ],
      "name": "setAdmin",
      "outputs": [],
      "payable": false,
      "stateMutability": "nonpayable",
      "type": "function"
    },
    {
      "constant": false,
      "inputs": [],
      "name": "pause",
      "outputs": [
        {
          "name": "",
          "type": "bool"
        }
      ],
      "payable": false,
      "stateMutability": "nonpayable",
      "type": "function"
    },
    {
      "constant": false,
      "inputs": [
        {
          "name": "_newUser",
          "type": "address"
        }
      ],
      "name": "setUser",
      "outputs": [],
      "payable": false,
      "stateMutability": "nonpayable",
      "type": "function"
    },
    {
      "constant": true,
      "inputs": [],
      "name": "userAddress",
      "outputs": [
        {
          "name": "",
          "type": "address"
        }
      ],
      "payable": false,
      "stateMutability": "view",
      "type": "function"
    },
    {
      "constant": true,
      "inputs": [],
      "name": "adminAddress",
      "outputs": [
        {
          "name": "",
          "type": "address"
        }
      ],
      "payable": false,
      "stateMutability": "view",
      "type": "function"
    },
    {
      "anonymous": false,
      "inputs": [
        {
          "indexed": false,
          "name": "newContract",
          "type": "address"
        }
      ],
      "name": "ContractUpgrade",
      "type": "event"
    }
  ],
  "bytecode": "0x60606040526000600160146101000a81548160ff021916908315150217905550341561002a57600080fd5b6105ba806100396000396000f300606060405260043610610083576000357c0100000000000000000000000000000000000000000000000000000000900463ffffffff1680633f4ba83a146100885780635c975abb146100b5578063704b6c02146100e25780638456cb591461011b578063858ced3514610148578063e4128fb314610181578063fc6f9468146101d6575b600080fd5b341561009357600080fd5b61009b61022b565b604051808215151515815260200191505060405180910390f35b34156100c057600080fd5b6100c86102d3565b604051808215151515815260200191505060405180910390f35b34156100ed57600080fd5b610119600480803573ffffffffffffffffffffffffffffffffffffffff169060200190919050506102e6565b005b341561012657600080fd5b61012e6103c0565b604051808215151515815260200191505060405180910390f35b341561015357600080fd5b61017f600480803573ffffffffffffffffffffffffffffffffffffffff16906020019091905050610468565b005b341561018c57600080fd5b610194610543565b604051808273ffffffffffffffffffffffffffffffffffffffff1673ffffffffffffffffffffffffffffffffffffffff16815260200191505060405180910390f35b34156101e157600080fd5b6101e9610569565b604051808273ffffffffffffffffffffffffffffffffffffffff1673ffffffffffffffffffffffffffffffffffffffff16815260200191505060405180910390f35b60008060009054906101000a900473ffffffffffffffffffffffffffffffffffffffff1673ffffffffffffffffffffffffffffffffffffffff163373ffffffffffffffffffffffffffffffffffffffff1614151561028857600080fd5b600160149054906101000a900460ff1615156102a357600080fd5b6000600160146101000a81548160ff021916908315150217905550600160149054906101000a900460ff16905090565b600160149054906101000a900460ff1681565b6000809054906101000a900473ffffffffffffffffffffffffffffffffffffffff1673ffffffffffffffffffffffffffffffffffffffff163373ffffffffffffffffffffffffffffffffffffffff1614151561034157600080fd5b600073ffffffffffffffffffffffffffffffffffffffff168173ffffffffffffffffffffffffffffffffffffffff161415151561037d57600080fd5b806000806101000a81548173ffffffffffffffffffffffffffffffffffffffff021916908373ffffffffffffffffffffffffffffffffffffffff16021790555050565b60008060009054906101000a900473ffffffffffffffffffffffffffffffffffffffff1673ffffffffffffffffffffffffffffffffffffffff163373ffffffffffffffffffffffffffffffffffffffff1614151561041d57600080fd5b600160149054906101000a900460ff1615151561043957600080fd5b60018060146101000a81548160ff021916908315150217905550600160149054906101000a900460ff16905090565b6000809054906101000a900473ffffffffffffffffffffffffffffffffffffffff1673ffffffffffffffffffffffffffffffffffffffff163373ffffffffffffffffffffffffffffffffffffffff161415156104c357600080fd5b600073ffffffffffffffffffffffffffffffffffffffff168173ffffffffffffffffffffffffffffffffffffffff16141515156104ff57600080fd5b80600160006101000a81548173ffffffffffffffffffffffffffffffffffffffff021916908373ffffffffffffffffffffffffffffffffffffffff16021790555050565b600160009054906101000a900473ffffffffffffffffffffffffffffffffffffffff1681565b6000809054906101000a900473ffffffffffffffffffffffffffffffffffffffff16815600a165627a7a7230582045021b60e8e875088a0a02cb0d80d69aac3879efa782e56cf60ecdaab1105df70029",
  "source": "pragma solidity ^0.4.4;\n\ncontract AssetAccessControl {\n \n    // This facet controls access control for Assets. There are two roles managed here:\n    //\n    //     - Admin: Register, transfer assets and do everything on contracts(pause/unpause/kill) \n    //\n    //     - User: Can view only\n\n    /// @dev Emited when contract is upgraded \n    event ContractUpgrade(address newContract);\n\n    // The addresses of the accounts (or contracts) that can execute actions within each roles.\n    address public adminAddress;\n    address public userAddress;\n\n    // @dev Keeps track whether the contract is paused. When that is true, most actions are blocked\n    bool public paused = false;\n\n    /// @dev Access modifier for Admin functionality\n    modifier onlyAdmin() {\n        require(msg.sender == adminAddress);\n        _;\n    }\n\n    /// @dev Access modifier for User functionality\n    modifier onlyUser() {\n        require(msg.sender == userAddress);\n        _;\n    }\n\n    function setAdmin(address _newAdmin) external onlyAdmin {\n        require(_newAdmin != address(0));\n        adminAddress = _newAdmin;\n    }\n\n    function setUser(address _newUser) external onlyAdmin {\n        require(_newUser != address(0));\n        userAddress = _newUser;\n    }\n\n    /*** Pausable functionality adapted from OpenZeppelin ***/\n\n    /// @dev Modifier to allow actions only when the contract IS NOT paused\n    modifier whenNotPaused() {\n        require(!paused);\n        _;\n    }\n\n    /// @dev Modifier to allow actions only when the contract IS paused\n    modifier whenPaused {\n        require(paused);\n        _;\n    }\n\n    /// @dev Called by Admin role to pause the contract. Used only when\n    ///  a bug or exploit is detected and we need to limit damage.\n    function pause() public onlyAdmin whenNotPaused returns (bool){\n        paused = true;\n        return paused;\n    }\n\n    /// @dev Unpauses the smart contract. Can only be called by the Admin\n    /// @notice This is public rather than external so it can be called by\n    ///  derived contracts.\n    function unpause() public onlyAdmin whenPaused  returns (bool) {\n        // can't unpause if contract was upgraded\n        paused = false;\n        return paused;\n    }\n}\n\n",
  "sourcePath": "/sandboxes/crypto-heroes/asset-transfer/contracts/AssetAccessControl.sol",
  "compiler": {
    "name": "solc",
    "version": "0.4.18+commit.9cf6e910.Emscripten.clang"
  },
  "schemaVersion": "1.0.1",
  "updatedAt": "2018-01-27T23:08:22.896Z"
}