{
  "contractName": "ERC721Metadata",
  "abi": [
    {
      "constant": true,
      "inputs": [
        {
          "name": "_tokenId",
          "type": "uint256"
        },
        {
          "name": "",
          "type": "string"
        }
      ],
      "name": "getMetadata",
      "outputs": [
        {
          "name": "buffer",
          "type": "bytes32[4]"
        },
        {
          "name": "count",
          "type": "uint256"
        }
      ],
      "payable": false,
      "stateMutability": "view",
      "type": "function"
    }
  ],
  "bytecode": "0x6060604052341561000f57600080fd5b6102548061001e6000396000f300606060405260043610610041576000357c0100000000000000000000000000000000000000000000000000000000900463ffffffff168063cb4799f214610046575b600080fd5b341561005157600080fd5b6100aa600480803590602001909190803590602001908201803590602001908080601f016020809104026020016040519081016040528093929190818152602001838380828437820191505050505050919050506100ef565b6040518083600460200280838360005b838110156100d55780820151818401526020810190506100ba565b505050509050018281526020019250505060405180910390f35b6100f76101fd565b6000600184141561014e577f474f4c440000000000000000000000000000000000000000000000000000000082600060048110151561013257fe5b60200201906000191690816000191681525050600490506101f6565b60028414156101a3577f4449414d4f4e440000000000000000000000000000000000000000000000000082600060048110151561018757fe5b60200201906000191690816000191681525050600790506101f5565b60038414156101f4577f4e6f7420446566696e65640000000000000000000000000000000000000000008260006004811015156101dc57fe5b60200201906000191690816000191681525050600b90505b5b5b9250929050565b6080604051908101604052806004905b600080191681526020019060019003908161020d57905050905600a165627a7a72305820f11cc4420875dae18637bdd768386baeffc55a6ff6bc6fa56342a66fcc7049370029",
  "source": "pragma solidity ^0.4.4;\n\n/// @title The external contract that is responsible for generating metadata for the ERC721 token,\n///  it has one function that will return the data as bytes.\ncontract ERC721Metadata {\n    /// @dev Given a token Id, returns a byte array that is supposed to be converted into string.\n    function getMetadata(uint256 _tokenId, string) public view returns (bytes32[4] buffer, uint256 count) {\n        if (_tokenId == 1) {\n            buffer[0] = \"GOLD\";\n            count = 4;\n        } else if (_tokenId == 2) {\n            buffer[0] = \"DIAMOND\";\n            count = 7;\n        } else if (_tokenId == 3) {\n            buffer[0] = \"Not Defined\";\n            count = 11;\n        }\n    }\n}\n",
  "sourcePath": "/sandboxes/crypto-heroes/asset-transfer/contracts/ERC721MetaData.sol",
  "compiler": {
    "name": "solc",
    "version": "0.4.18+commit.9cf6e910.Emscripten.clang"
  },
  "schemaVersion": "1.0.1",
  "updatedAt": "2018-01-27T23:08:22.899Z"
}